{
  "_format": "hh-sol-artifact-1",
  "contractName": "SolarEnergy",
  "sourceName": "contracts/solarEnergy.sol",
  "abi": [
    {
      "inputs": [],
      "name": "ReentrancyGuardReentrantCall",
      "type": "error"
    },
    {
      "anonymous": false,
      "inputs": [
        {
          "indexed": true,
          "internalType": "uint256",
          "name": "id",
          "type": "uint256"
        },
        {
          "indexed": true,
          "internalType": "address",
          "name": "seller",
          "type": "address"
        },
        {
          "indexed": false,
          "internalType": "uint256",
          "name": "amount",
          "type": "uint256"
        },
        {
          "indexed": false,
          "internalType": "uint256",
          "name": "pricePerUnit",
          "type": "uint256"
        }
      ],
      "name": "EnergyList",
      "type": "event"
    },
    {
      "anonymous": false,
      "inputs": [
        {
          "indexed": true,
          "internalType": "uint256",
          "name": "id",
          "type": "uint256"
        },
        {
          "indexed": true,
          "internalType": "address",
          "name": "buyer",
          "type": "address"
        },
        {
          "indexed": false,
          "internalType": "uint256",
          "name": "amountBought",
          "type": "uint256"
        },
        {
          "indexed": false,
          "internalType": "uint256",
          "name": "amount",
          "type": "uint256"
        }
      ],
      "name": "EnergyPurchased",
      "type": "event"
    },
    {
      "anonymous": false,
      "inputs": [
        {
          "indexed": true,
          "internalType": "address",
          "name": "seller",
          "type": "address"
        },
        {
          "indexed": false,
          "internalType": "uint256",
          "name": "amount",
          "type": "uint256"
        }
      ],
      "name": "Withdrawn",
      "type": "event"
    },
    {
      "inputs": [
        {
          "internalType": "uint256",
          "name": "_listingId",
          "type": "uint256"
        },
        {
          "internalType": "uint256",
          "name": "_amount",
          "type": "uint256"
        }
      ],
      "name": "buyEnergy",
      "outputs": [],
      "stateMutability": "payable",
      "type": "function"
    },
    {
      "inputs": [
        {
          "internalType": "uint256",
          "name": "_id",
          "type": "uint256"
        }
      ],
      "name": "getListing",
      "outputs": [
        {
          "components": [
            {
              "internalType": "uint256",
              "name": "id",
              "type": "uint256"
            },
            {
              "internalType": "address",
              "name": "seller",
              "type": "address"
            },
            {
              "internalType": "uint256",
              "name": "totalEnergy",
              "type": "uint256"
            },
            {
              "internalType": "uint256",
              "name": "remainingEnergy",
              "type": "uint256"
            },
            {
              "internalType": "uint256",
              "name": "pricePerUnit",
              "type": "uint256"
            },
            {
              "internalType": "bool",
              "name": "isActive",
              "type": "bool"
            }
          ],
          "internalType": "struct SolarEnergy.EnergyListing",
          "name": "",
          "type": "tuple"
        }
      ],
      "stateMutability": "view",
      "type": "function"
    },
    {
      "inputs": [
        {
          "internalType": "uint256",
          "name": "_totalEnergy",
          "type": "uint256"
        },
        {
          "internalType": "uint256",
          "name": "_pricePerUnit",
          "type": "uint256"
        }
      ],
      "name": "listEnergy",
      "outputs": [],
      "stateMutability": "nonpayable",
      "type": "function"
    },
    {
      "inputs": [],
      "name": "listingCount",
      "outputs": [
        {
          "internalType": "uint256",
          "name": "",
          "type": "uint256"
        }
      ],
      "stateMutability": "view",
      "type": "function"
    },
    {
      "inputs": [
        {
          "internalType": "uint256",
          "name": "",
          "type": "uint256"
        }
      ],
      "name": "listings",
      "outputs": [
        {
          "internalType": "uint256",
          "name": "id",
          "type": "uint256"
        },
        {
          "internalType": "address",
          "name": "seller",
          "type": "address"
        },
        {
          "internalType": "uint256",
          "name": "totalEnergy",
          "type": "uint256"
        },
        {
          "internalType": "uint256",
          "name": "remainingEnergy",
          "type": "uint256"
        },
        {
          "internalType": "uint256",
          "name": "pricePerUnit",
          "type": "uint256"
        },
        {
          "internalType": "bool",
          "name": "isActive",
          "type": "bool"
        }
      ],
      "stateMutability": "view",
      "type": "function"
    },
    {
      "inputs": [
        {
          "internalType": "address",
          "name": "",
          "type": "address"
        }
      ],
      "name": "pendingWithdrawls",
      "outputs": [
        {
          "internalType": "uint256",
          "name": "",
          "type": "uint256"
        }
      ],
      "stateMutability": "view",
      "type": "function"
    },
    {
      "inputs": [],
      "name": "withdraw",
      "outputs": [],
      "stateMutability": "nonpayable",
      "type": "function"
    }
  ],
  "bytecode": "0x6080604052348015600f57600080fd5b5060016000819055506112f7806100276000396000f3fe6080604052600436106100705760003560e01c8063a9b07c261161004e578063a9b07c2614610106578063c8a9fb5e14610131578063cdb6d52d1461015a578063de74e57b1461017657610070565b8063107a274a1461007557806329985302146100b25780633ccfd60b146100ef575b600080fd5b34801561008157600080fd5b5061009c60048036038101906100979190610b04565b6101b8565b6040516100a99190610c17565b60405180910390f35b3480156100be57600080fd5b506100d960048036038101906100d49190610c5e565b6102d1565b6040516100e69190610c9a565b60405180910390f35b3480156100fb57600080fd5b506101046102e9565b005b34801561011257600080fd5b5061011b61045d565b6040516101289190610c9a565b60405180910390f35b34801561013d57600080fd5b5061015860048036038101906101539190610cb5565b610463565b005b610174600480360381019061016f9190610cb5565b610647565b005b34801561018257600080fd5b5061019d60048036038101906101989190610b04565b6109c2565b6040516101af96959493929190610d13565b60405180910390f35b6101c0610a7b565b816000811180156101d357506001548111155b610212576040517f08c379a000000000000000000000000000000000000000000000000000000000815260040161020990610dd1565b60405180910390fd5b600260008481526020019081526020016000206040518060c0016040529081600082015481526020016001820160009054906101000a900473ffffffffffffffffffffffffffffffffffffffff1673ffffffffffffffffffffffffffffffffffffffff1673ffffffffffffffffffffffffffffffffffffffff1681526020016002820154815260200160038201548152602001600482015481526020016005820160009054906101000a900460ff161515151581525050915050919050565b60036020528060005260406000206000915090505481565b6102f1610a2b565b6000600360003373ffffffffffffffffffffffffffffffffffffffff1673ffffffffffffffffffffffffffffffffffffffff16815260200190815260200160002054905060008111610378576040517f08c379a000000000000000000000000000000000000000000000000000000000815260040161036f90610e3d565b60405180910390fd5b6000600360003373ffffffffffffffffffffffffffffffffffffffff1673ffffffffffffffffffffffffffffffffffffffff168152602001908152602001600020819055503373ffffffffffffffffffffffffffffffffffffffff166108fc829081150290604051600060405180830381858888f19350505050158015610403573d6000803e3d6000fd5b503373ffffffffffffffffffffffffffffffffffffffff167f7084f5476618d8e60b11ef0d7d3f06914655adb8793e28ff7f018d4c76d505d58260405161044a9190610c9a565b60405180910390a25061045b610a71565b565b60015481565b600082116104a6576040517f08c379a000000000000000000000000000000000000000000000000000000000815260040161049d90610ecf565b60405180910390fd5b600081116104e9576040517f08c379a00000000000000000000000000000000000000000000000000000000081526004016104e090610f3b565b60405180910390fd5b600160008154809291906104fc90610f8a565b91905055506040518060c0016040528060015481526020013373ffffffffffffffffffffffffffffffffffffffff168152602001838152602001838152602001828152602001600115158152506002600060015481526020019081526020016000206000820151816000015560208201518160010160006101000a81548173ffffffffffffffffffffffffffffffffffffffff021916908373ffffffffffffffffffffffffffffffffffffffff16021790555060408201518160020155606082015181600301556080820151816004015560a08201518160050160006101000a81548160ff0219169083151502179055509050503373ffffffffffffffffffffffffffffffffffffffff166001547ff2a3d8b3e2aa24b91f3da44188955486a7185474dbffa7953a7e4368f42c795d848460405161063b929190610fd2565b60405180910390a35050565b8160008111801561065a57506001548111155b610699576040517f08c379a000000000000000000000000000000000000000000000000000000000815260040161069090610dd1565b60405180910390fd5b826002600082815260200190815260200160002060050160009054906101000a900460ff166106fd576040517f08c379a00000000000000000000000000000000000000000000000000000000081526004016106f490611047565b60405180910390fd5b833373ffffffffffffffffffffffffffffffffffffffff166002600083815260200190815260200160002060010160009054906101000a900473ffffffffffffffffffffffffffffffffffffffff1673ffffffffffffffffffffffffffffffffffffffff16036107a2576040517f08c379a0000000000000000000000000000000000000000000000000000000008152600401610799906110b3565b60405180910390fd5b6107aa610a2b565b600060026000878152602001908152602001600020905060008511610804576040517f08c379a00000000000000000000000000000000000000000000000000000000081526004016107fb9061111f565b60405180910390fd5b806003015485111561084b576040517f08c379a00000000000000000000000000000000000000000000000000000000081526004016108429061118b565b60405180910390fd5b600081600401548661085d91906111ab565b90508034146108a1576040517f08c379a000000000000000000000000000000000000000000000000000000000815260040161089890611239565b60405180910390fd5b858260030160008282546108b59190611259565b9250508190555060008260030154036108e65760008260050160006101000a81548160ff0219169083151502179055505b34600360008460010160009054906101000a900473ffffffffffffffffffffffffffffffffffffffff1673ffffffffffffffffffffffffffffffffffffffff1673ffffffffffffffffffffffffffffffffffffffff1681526020019081526020016000206000828254610959919061128d565b925050819055503373ffffffffffffffffffffffffffffffffffffffff16877fb3f7800221c52a82e5cb1dea74fe5947e147bdd6b315a45301e655007d1e6e9f88846040516109a9929190610fd2565b60405180910390a350506109bb610a71565b5050505050565b60026020528060005260406000206000915090508060000154908060010160009054906101000a900473ffffffffffffffffffffffffffffffffffffffff16908060020154908060030154908060040154908060050160009054906101000a900460ff16905086565b600260005403610a67576040517f3ee5aeb500000000000000000000000000000000000000000000000000000000815260040160405180910390fd5b6002600081905550565b6001600081905550565b6040518060c0016040528060008152602001600073ffffffffffffffffffffffffffffffffffffffff1681526020016000815260200160008152602001600081526020016000151581525090565b600080fd5b6000819050919050565b610ae181610ace565b8114610aec57600080fd5b50565b600081359050610afe81610ad8565b92915050565b600060208284031215610b1a57610b19610ac9565b5b6000610b2884828501610aef565b91505092915050565b610b3a81610ace565b82525050565b600073ffffffffffffffffffffffffffffffffffffffff82169050919050565b6000610b6b82610b40565b9050919050565b610b7b81610b60565b82525050565b60008115159050919050565b610b9681610b81565b82525050565b60c082016000820151610bb26000850182610b31565b506020820151610bc56020850182610b72565b506040820151610bd86040850182610b31565b506060820151610beb6060850182610b31565b506080820151610bfe6080850182610b31565b5060a0820151610c1160a0850182610b8d565b50505050565b600060c082019050610c2c6000830184610b9c565b92915050565b610c3b81610b60565b8114610c4657600080fd5b50565b600081359050610c5881610c32565b92915050565b600060208284031215610c7457610c73610ac9565b5b6000610c8284828501610c49565b91505092915050565b610c9481610ace565b82525050565b6000602082019050610caf6000830184610c8b565b92915050565b60008060408385031215610ccc57610ccb610ac9565b5b6000610cda85828601610aef565b9250506020610ceb85828601610aef565b9150509250929050565b610cfe81610b60565b82525050565b610d0d81610b81565b82525050565b600060c082019050610d286000830189610c8b565b610d356020830188610cf5565b610d426040830187610c8b565b610d4f6060830186610c8b565b610d5c6080830185610c8b565b610d6960a0830184610d04565b979650505050505050565b600082825260208201905092915050565b7f496e76616c696420696400000000000000000000000000000000000000000000600082015250565b6000610dbb600a83610d74565b9150610dc682610d85565b602082019050919050565b60006020820190508181036000830152610dea81610dae565b9050919050565b7f4e6f2066756e647320746f207769746864726177000000000000000000000000600082015250565b6000610e27601483610d74565b9150610e3282610df1565b602082019050919050565b60006020820190508181036000830152610e5681610e1a565b9050919050565b7f546f74616c20656e65726779206d75737420626520677265617465722074686160008201527f6e207a65726f0000000000000000000000000000000000000000000000000000602082015250565b6000610eb9602683610d74565b9150610ec482610e5d565b604082019050919050565b60006020820190508181036000830152610ee881610eac565b9050919050565b7f5072696365206d7573742062652067726561746572207468656e205a65726f00600082015250565b6000610f25601f83610d74565b9150610f3082610eef565b602082019050919050565b60006020820190508181036000830152610f5481610f18565b9050919050565b7f4e487b7100000000000000000000000000000000000000000000000000000000600052601160045260246000fd5b6000610f9582610ace565b91507fffffffffffffffffffffffffffffffffffffffffffffffffffffffffffffffff8203610fc757610fc6610f5b565b5b600182019050919050565b6000604082019050610fe76000830185610c8b565b610ff46020830184610c8b565b9392505050565b7f4964204e6f742041637469766500000000000000000000000000000000000000600082015250565b6000611031600d83610d74565b915061103c82610ffb565b602082019050919050565b6000602082019050818103600083015261106081611024565b9050919050565b7f5365656c65722043616e6e6f7420427579000000000000000000000000000000600082015250565b600061109d601183610d74565b91506110a882611067565b602082019050919050565b600060208201905081810360008301526110cc81611090565b9050919050565b7f496e76616c696420616d6f756e74000000000000000000000000000000000000600082015250565b6000611109600e83610d74565b9150611114826110d3565b602082019050919050565b60006020820190508181036000830152611138816110fc565b9050919050565b7f4e6f7420656e6f75676820656e6572677920617661696c61626c650000000000600082015250565b6000611175601b83610d74565b91506111808261113f565b602082019050919050565b600060208201905081810360008301526111a481611168565b9050919050565b60006111b682610ace565b91506111c183610ace565b92508282026111cf81610ace565b915082820484148315176111e6576111e5610f5b565b5b5092915050565b7f496e636f7272656374204554482073656e740000000000000000000000000000600082015250565b6000611223601283610d74565b915061122e826111ed565b602082019050919050565b6000602082019050818103600083015261125281611216565b9050919050565b600061126482610ace565b915061126f83610ace565b925082820390508181111561128757611286610f5b565b5b92915050565b600061129882610ace565b91506112a383610ace565b92508282019050808211156112bb576112ba610f5b565b5b9291505056fea26469706673582212201b6a0a08078f180b2b7e5b657b349a32db10712cbd5a43dad1ebd1ae06a6e34b64736f6c634300081c0033",
  "linkReferences": {},
  "deployedLinkReferences": {}
}